8=FIX.4.4|9=75|35=A|34=1|49=ACCUMULATOR|52=20250419-22:57:00.009|56=GENERATOR|98=0|108=30|10=233|8=FIX.4.4|9=269|35=8|34=2|49=ACCUMULATOR|52=20250419-22:57:11.420|56=GENERATOR|6=90|11=49b62c53-8fd1-484b-84f7-d44b110c7696|14=0|17=2b23b614-d418-4a82-9e1b-4b235de7505c|37=d8978699-c702-4436-90a3-4ad36898e1a4|38=100|39=0|40=2|44=90|54=1|55=PETR4|60=20250419-22:57:11.375|150=0|151=100|10=096|8=FIX.4.4|9=269|35=8|34=3|49=ACCUMULATOR|52=20250419-22:57:12.110|56=GENERATOR|6=90|11=79d03541-fc14-4836-a271-2279c2f72e55|14=0|17=b3ce9bf2-823a-4ca3-b990-0d1f512f83b1|37=4703b823-a789-4a5d-b623-436506746ce4|38=100|39=0|40=2|44=90|54=1|55=PETR4|60=20250419-22:57:12.103|150=0|151=100|10=101|8=FIX.4.4|9=269|35=8|34=4|49=ACCUMULATOR|52=20250419-22:57:33.219|56=GENERATOR|6=90|11=d7f10804-0bf2-415e-a78d-d07752e69739|14=0|17=9fcce1c3-7021-458c-8de4-da136b948970|37=522cf0df-5277-4990-9666-22c6f9dd193e|38=100|39=0|40=2|44=90|54=1|55=PETR4|60=20250419-22:57:33.217|150=0|151=100|10=009|8=FIX.4.4|9=63|35=0|34=5|49=ACCUMULATOR|52=20250419-22:58:03.260|56=GENERATOR|10=195|8=FIX.4.4|9=63|35=0|34=6|49=ACCUMULATOR|52=20250419-22:58:33.288|56=GENERATOR|10=209|